:100000000C9434000C9451000C9451000C94510049
:100010000C9451000C9451000C9451000C9451001C
:100020000C9451000C9451000C9451000C9451000C
:100030000C9451000C9451000C9451000C945100FC
:100040000C9451000C9451000C9451000C943E06F9
:100050000C9489060C9451000C9451000C9451009E
:100060000C9451000C94510011241FBECFEFD8E026
:10007000DEBFCDBF11E0A0E0B1E0ECEEFFE002C0DA
:1000800005900D92A038B107D9F721E0A0E8B1E0C2
:1000900001C01D92AB3FB207E1F70E94D1030C945F
:1000A000F4070C940000CF93DF9300D0CDB7DEB7F8
:1000B0008091E601882F90E08F7099279E012F5F35
:1000C0003F4FB9010E94E001898180932201809114
:1000D000E60182958F70882F90E09E012F5F3F4F41
:1000E000B9010E94E0018981809321018091E7019B
:1000F000882F90E08F7099279E012F5F3F4FB901A5
:100100000E94E001898180931F018091E70182951F
:100110008F70882F90E09E012F5F3F4FB9010E94A2
:10012000E001898180931E018091E801882F90E091
:100130008F7099279E012F5F3F4FB9010E94E00108
:10014000898180931C018091E80182958F70882FAE
:1001500090E0817099279E012F5F3F4FB9010E9467
:10016000E001898180931B018091EA01882F90E052
:100170008F7099279E012F5F3F4FB9010E94E001C8
:100180008981809307018091EA0182958F70882F81
:1001900090E0837099279E012F5F3F4FB9010E9425
:1001A000E0018981809306018091EB01882F90E026
:1001B0008F7099279E012F5F3F4FB9010E94E00188
:1001C000898180930A018091EB0182958F70882F3D
:1001D00090E0817099279E012F5F3F4FB9010E94E7
:1001E000E0018981809309018091EC01882F90E0E2
:1001F0008F7099279E012F5F3F4FB9010E94E00148
:10020000898180930F018091EC0182958F70882FF6
:1002100090E09E012F5F3F4FB9010E94E00189816C
:1002200080930E0180E091E00F900F90DF91CF91CD
:100230000895CF93DF93CDB7DEB765970FB6F894E7
:10024000DEBF0FBECDBF8B8B7D8B6C8B85E291E0CB
:100250009D8B8C8B81E1ECE4F1E0DE011296019044
:100260000D928A95E1F78B8989838C899D890896FF
:100270002981222F30E02F703327AE014E5F5F4F70
:10028000240F351FF9012081FC012083898182958B
:100290008F7089838C899D8907962981222F30E070
:1002A0002F703327AE014E5F5F4F240F351FF901CA
:1002B0002081FC0120838B8989838C899D899C0105
:1002C000295E3F4F99818DEC989F812D1124869551
:1002D00086958695880F482F440F440F840FF92F79
:1002E000F81B8F2F882F90E0AE014E5F5F4F840F79
:1002F000951FFC018081F901808399818DEC989F85
:10030000812D112486958695869589838C899D8972
:100310009C012A5E3F4F99818DEC989F812D11247D
:10032000869586958695880F482F440F440F840F35
:10033000F92FF81B8F2F882F90E0AE014E5F5F4F93
:10034000840F951FFC018081F901808399818DECD8
:10035000989F812D112486958695869589838C8911
:100360009D899C012B5E3F4F99818DEC989F812D3B
:100370001124869586958695880F482F440F440F43
:10038000840FF92FF81B8F2F882F90E0AE014E5F5E
:100390005F4F840F951FFC018081F90180838C8958
:1003A0009D8984962B89FC0120838C899D89659683
:1003B0000FB6F894DEBF0FBECDBFDF91CF91089589
:1003C0000F931F93CF93DF93CDB7DEB763970FB62D
:1003D000F894DEBF0FBECDBF998B888B7B8B6A8B69
:1003E0008BE0EDE5F1E0DE01159601900D928A9526
:1003F000E1F70A891B89888999899A838983898188
:100400009A81992374F4C8018C010F5F1F4F2DE26C
:10041000FC01208389819A819195819591099A8324
:10042000898389819A819C838B830F5F1F4F8B8186
:100430009C812AE030E0B9010E94B106CB019C8387
:100440008B838B819C81892B81F7F801108201506D
:10045000110989819A812AE030E0B9010E94B10630
:100460009C01CE010596820F931FFC018081F8014B
:10047000808389819A812AE030E0B9010E94B10627
:10048000CB019A83898389819A81892B01F78A8993
:100490009B8963960FB6F894DEBF0FBECDBFDF9188
:1004A000CF911F910F910895CF93DF93CDB7DEB712
:1004B00088EB90E028E7FC0120838CEB90E02CEBAC
:1004C00030E0F90120812E7FFC0120838CEB90E04D
:1004D0002CEB30E0F90120812B7FFC0120838CEB99
:1004E00090E02CEB30E0F90120812F7EFC0120838D
:1004F0008CEB90E02CEB30E0F90120812F7DFC01AA
:1005000020838CEB90E02CEB30E0F90120812F7BF5
:10051000FC0120838CEB90E02CEB30E0F901208192
:100520002F77FC01208389EB90E029EB30E0F90183
:1005300020812E7FFC01208389EB90E029EB30E0C5
:10054000F90120812D7FFC0120838AEB90E02EEFC2
:10055000FC0120838AEB90E02AEB30E0F901208156
:100560002E7FFC0120838DEB90E0FC0110828CEB50
:1005700090E02CEB30E0F90120812460FC01208325
:100580000000DF91CF910895CF93DF931F92CDB7F5
:10059000DEB7898386EE91E09093FA018093F901AA
:1005A0008CEB90E02CEB30E0F90120812062FC0123
:1005B00020838CEB90E02CEB30E0F9012081206867
:1005C000FC01208389818093240100000F90DF913A
:1005D000CF910895CF93DF93CDB7DEB789EB90E04D
:1005E000FC018081883081F48BEB90E02091240124
:1005F000220FFC0120838CEB90E02CEB30E0F90122
:1006000020812F7DFC01208389EB90E0FC0180811B
:10061000883121F48BEB90E0FC01108289EB90E0B3
:10062000FC018081883249F48CEB90E02CEB30E0C7
:10063000F90120812062FC01208389EB90E0FC011C
:1006400080818031A1F48BEB90E020912401222F56
:1006500030E0220F331F2160FC0120838CEB90E0FF
:100660002CEB30E0F90120812F7DFC01208389EB08
:1006700090E0FC018081803449F48CEB90E02CEB1D
:1006800030E0F90120812064FC01208389EB90E0B7
:10069000FC018081803509F046C08091F90190917C
:1006A000FA019C0186EE91E0A901481B590BCA0191
:1006B000419794F48091F9019091FA019C012F5F88
:1006C0003F4F3093FA012093F9012BEB30E0F90111
:1006D0002081FC01208327C08091F9019091FA01CB
:1006E0009C0186EE91E0A901481B590BCA01419774
:1006F000D1F48CEB90E02CEB30E0F90120812F7BE2
:10070000FC0120838091F9019091FA019C012F5FF7
:100710003F4F3093FA012093F9012BEB30E0F901C0
:100720002081FC01208389EB90E0FC0180818835E9
:10073000D1F48091F9019091FA01FC0110828CEBC7
:1007400090E02CEB30E0F90120812061FC01208356
:100750008CEB90E02CEB30E0F90120812068FC016B
:10076000208381E00AC08CEB90E02CEB30E0F901B3
:1007700020812068FC01208380E0DF91CF910895E3
:10078000CF93DF93CDB7DEB78CEB90E02CEB30E06E
:10079000F90120812B7FFC0120830000DF91CF91A4
:1007A0000895CF93DF93CDB7DEB76C970FB6F8946B
:1007B000DEBF0FBECDBF84E690E024E630E0F90155
:1007C00020812160FC01208384E690E024E630E073
:1007D000F90120812F77FC01208384E690E024E654
:1007E00030E0F90120812460FC01208384E690E060
:1007F00024E630E0F90120812062FC01208384E6B8
:1008000090E024E630E0F90120812860FC0120839B
:1008100084E690E024E630E0F90120812064FC01C8
:10082000208384E690E024E630E0F90120812D7FEA
:10083000FC01208384E290E024E230E0F901208191
:100840002062FC01208385E290E025E230E0F9019E
:1008500020812F7DFC01208387E090E00E944405E9
:100860000E9454028FE590E02FE530E0F9012081ED
:100870002068FC01208388E691E00E94000680E069
:1008800090E0A0EAB0E48D839E83AF83B88720E038
:1008900030E04AE755E46D817E818F8198850E9422
:1008A0005F07DC01CB0189879A87AB87BC8720E093
:1008B00030E040E85FE369857A858B859C850E94FE
:1008C000D90688232CF481E090E09E878D873FC075
:1008D00020E03FEF4FE757E469857A858B859C855B
:1008E0000E945A0718164CF520E030E040E251E42F
:1008F0006D817E818F8198850E945F07DC01CB012D
:10090000BC01CD010E94DE06DC01CB019E878D87F4
:100910000FC080E991E0988B8F878F859889019728
:10092000F1F7988B8F878D859E8501979E878D87A0
:100930008D859E85892B69F714C069857A858B859D
:100940009C850E94DE06DC01CB019E878D878D850C
:100950009E859A8B898B89899A890197F1F79A8B61
:10096000898B88E60E94C40285E290E025E230E0AF
:10097000F901308120E22327FC01208380E090E010
:10098000A8E4B2E489839A83AB83BC8320E030E09F
:100990004AE755E469817A818B819C810E945F07D7
:1009A000DC01CB018B8B9C8BAD8BBE8B20E030E0D0
:1009B00040E85FE36B897C898D899E890E94D90616
:1009C00088232CF481E090E0988F8F8B3FC020E04B
:1009D0003FEF4FE757E46B897C898D899E890E94A0
:1009E0005A0718164CF520E030E040E251E46981E6
:1009F0007A818B819C810E945F07DC01CB01BC0165
:100A0000CD010E94DE06DC01CB01988F8F8B0FC0D9
:100A100080E991E09A8F898F898D9A8D0197F1F7FE
:100A20009A8F898F8F89988D0197988F8F8B8F8957
:100A3000988D892B69F714C06B897C898D899E8973
:100A40000E94DE06DC01CB01988F8F8B8F89988DF9
:100A50009C8F8B8F8B8D9C8D0197F1F79C8F8B8F4B
:100A60008CEB90E0FC01808188230CF07DCF0E940C
:100A7000EA02813009F078CF88E60E94C4020E9421
:100A800053000E94000670CFCF93DF9300D0CDB704
:100A9000DEB79A83898389819A8101969A838983B3
:100AA00085EC90E029813A81232F3327FC012083B4
:100AB00084EC90E02981FC01208380EC90E020EC24
:100AC00030E0F90120812E7FFC01208380EC90E052
:100AD00020EC30E0F90120812D7FFC01208380ECA7
:100AE00090E020EC30E0F90120812F7BFC01208395
:100AF00081EC90E021EC30E0F90120812B7FFC01BA
:100B0000208381EC90E021EC30E0F90120812F7E00
:100B1000FC01208381EC90E021EC30E0F9012081A0
:100B20002F7DFC01208381EC90E021EC30E0F90185
:100B300020812F7BFC01208381EC90E021EC30E0D0
:100B4000F90120812F77FC01208382EC90E022ECD8
:100B500030E0F90120812E7FFC01208381EC90E0C0
:100B600021EC30E0F90120812260FC01208381EC3E
:100B700090E021EC30E0F90120812460FC01208329
:100B800081EC90E021EC30E0F9012081277FFC012D
:100B9000208381EC90E021EC30E0F90120812F7E70
:100BA000FC01208381EC90E021EC30E0F901208110
:100BB0002062FC01208381EC90E021EC30E0F9011F
:100BC00020812F7BFC01208381EC90E021EC30E040
:100BD000F90120812F77FC01208386EC90E0FC0155
:100BE000108281EC90E021EC30E0F9012081286056
:100BF000FC01208300000F900F90DF91CF910895AA
:100C00001F93CF93DF93CDB7DEB710E00FC0212F36
:100C100011E0120F422F50E09C01C9010196F90129
:100C200060819A0120583E4FF9016083FC012081C8
:100C3000222369F7812F90E080589E4F2AE0FC0123
:100C4000208380E891E09093E5018093E40181ECBA
:100C500090E021EC30E0F90120812062FC0120834A
:100C600081EC90E021EC30E0F90120812064FC016E
:100C700020830000DF91CF911F9108951F920F9262
:100C800000905F000F9211242F933F934F935F9337
:100C90008F939F93EF93FF93CF93DF93CDB7DEB7FF
:100CA0008091E4019091E501FC0180818A3091F00E
:100CB00026EC30E08091E4019091E501AC014F5FBA
:100CC0005F4F5093E5014093E401FC018081F901FD
:100CD00080830EC086EC90E02AE0FC01208381EC4A
:100CE00090E021EC30E0F90120812F7DFC01208390
:100CF0000000DF91CF91FF91EF919F918F915F91D4
:100D00004F913F912F910F9000925F000F901F9095
:100D100018951F920F9200905F000F9211242F934D
:100D20003F938F939F93EF93FF93CF93DF93CDB731
:100D3000DEB781EC90E021EC30E0F90120812F7BDF
:100D4000FC0120830000DF91CF91FF91EF919F91F3
:100D50008F913F912F910F9000925F000F901F9005
:100D6000189597FB072E16F4009407D077FD09D04D
:100D70000E94C50607FC05D03EF4909581959F4FD3
:100D80000895709561957F4F0895AA1BBB1B51E193
:100D900007C0AA1FBB1FA617B70710F0A61BB70BEB
:100DA000881F991F5A95A9F780959095BC01CD0190
:100DB00008950E940D0708F481E008950E94390704
:100DC00088F09F5798F0B92F9927B751B0F0E1F00C
:100DD000660F771F881F991F1AF0BA95C9F714C0BC
:100DE000B13091F00E945307B1E008950C9453077D
:100DF000672F782F8827B85F39F0B93FCCF38695F5
:100E000077956795B395D9F73EF490958095709551
:100E100061957F4F8F4F9F4F0895990F0008550F91
:100E2000AA0BE0E8FEEF16161706E807F907C0F070
:100E300012161306E407F50798F0621B730B840B78
:100E4000950B39F40A2661F0232B242B252B21F452
:100E500008950A2609F4A140A6958FEF811D811DF2
:100E6000089557FD9058440F551F59F05F3F71F09A
:100E70004795880F97FB991F61F09F3F79F0879501
:100E80000895121613061406551FF2CF4695F1DF8A
:100E900008C0161617061806991FF1CF869571051A
:100EA000610508940895E894BB2766277727CB014E
:100EB00097F908950E940D0708F48FEF08950E9496
:100EC00072070C94E3070E94D50738F00E94DC07F4
:100ED00020F0952311F00C94CC070C94D207112428
:100EE0000C9454070E94310770F3959FC1F3950F3E
:100EF00050E0551F629FF001729FBB27F00DB11D9E
:100F0000639FAA27F00DB11DAA1F649F6627B00D2D
:100F1000A11D661F829F2227B00DA11D621F739F16
:100F2000B00DA11D621F839FA00D611D221F749F24
:100F30003327A00D611D231F849F600D211D822F6B
:100F4000762F6A2F11249F5750409AF0F1F0882392
:100F50004AF0EE0FFF1FBB1F661F771F881F9150BF
:100F60005040A9F79E3F510580F00C94CC070C949B
:100F700054075F3FE4F3983ED4F3869577956795E1
:100F8000B795F795E7959F5FC1F7FE2B880F911DE9
:100F90009695879597F9089597F99F6780E870E08F
:100FA00060E008959FEF80EC089500240A941616DF
:100FB000170618060906089500240A941216130647
:100FC000140605060895092E0394000C11F48823D5
:100FD00052F0BB0F40F4BF2B11F460FF04C06F5FF1
:0C0FE0007F4F8F4F9F4F0895F894FFCF74
:100FEC00446174653A2030302D30302D3230303041
:100FFC00202020202054696D653A2030303A303062
:10100C003A303000FF4865783A2030783030202074
:10101C00202020555F496E743A203030302020203B
:10102C00202041534349493A2030000030313233BB
:10103C003435363738394142434445460030313235
:10104C00333435363738390053657269616C205446
:10105C00657374204D6573736167652E2E2E0000C9
:00000001FF
